{
  "_format": "hh-sol-artifact-1",
  "contractName": "Voting",
  "sourceName": "contracts/Voting.sol",
  "abi": [
    {
      "inputs": [],
      "stateMutability": "nonpayable",
      "type": "constructor"
    },
    {
      "inputs": [
        {
          "internalType": "string",
          "name": "_name",
          "type": "string"
        }
      ],
      "name": "addCandidate",
      "outputs": [],
      "stateMutability": "nonpayable",
      "type": "function"
    },
    {
      "inputs": [
        {
          "internalType": "uint256",
          "name": "",
          "type": "uint256"
        }
      ],
      "name": "candidates",
      "outputs": [
        {
          "internalType": "uint256",
          "name": "id",
          "type": "uint256"
        },
        {
          "internalType": "string",
          "name": "name",
          "type": "string"
        },
        {
          "internalType": "uint256",
          "name": "numberOfvotes",
          "type": "uint256"
        }
      ],
      "stateMutability": "view",
      "type": "function"
    },
    {
      "inputs": [],
      "name": "checkElectionPeriod",
      "outputs": [
        {
          "internalType": "bool",
          "name": "",
          "type": "bool"
        }
      ],
      "stateMutability": "nonpayable",
      "type": "function"
    },
    {
      "inputs": [],
      "name": "electionStarted",
      "outputs": [
        {
          "internalType": "bool",
          "name": "",
          "type": "bool"
        }
      ],
      "stateMutability": "view",
      "type": "function"
    },
    {
      "inputs": [],
      "name": "electionTimer",
      "outputs": [
        {
          "internalType": "uint256",
          "name": "",
          "type": "uint256"
        }
      ],
      "stateMutability": "view",
      "type": "function"
    },
    {
      "inputs": [
        {
          "internalType": "uint256",
          "name": "",
          "type": "uint256"
        }
      ],
      "name": "listOfVoters",
      "outputs": [
        {
          "internalType": "address",
          "name": "",
          "type": "address"
        }
      ],
      "stateMutability": "view",
      "type": "function"
    },
    {
      "inputs": [],
      "name": "owner",
      "outputs": [
        {
          "internalType": "address",
          "name": "",
          "type": "address"
        }
      ],
      "stateMutability": "view",
      "type": "function"
    },
    {
      "inputs": [],
      "name": "resetAllVoterStatus",
      "outputs": [],
      "stateMutability": "nonpayable",
      "type": "function"
    },
    {
      "inputs": [],
      "name": "retrieveVotes",
      "outputs": [
        {
          "components": [
            {
              "internalType": "uint256",
              "name": "id",
              "type": "uint256"
            },
            {
              "internalType": "string",
              "name": "name",
              "type": "string"
            },
            {
              "internalType": "uint256",
              "name": "numberOfvotes",
              "type": "uint256"
            }
          ],
          "internalType": "struct Voting.Candidate[]",
          "name": "",
          "type": "tuple[]"
        }
      ],
      "stateMutability": "view",
      "type": "function"
    },
    {
      "inputs": [
        {
          "internalType": "string[]",
          "name": "_candidates",
          "type": "string[]"
        },
        {
          "internalType": "uint256",
          "name": "_votingDuration",
          "type": "uint256"
        }
      ],
      "name": "startElection",
      "outputs": [],
      "stateMutability": "nonpayable",
      "type": "function"
    },
    {
      "inputs": [
        {
          "internalType": "uint256",
          "name": "_id",
          "type": "uint256"
        }
      ],
      "name": "voteTo",
      "outputs": [],
      "stateMutability": "nonpayable",
      "type": "function"
    },
    {
      "inputs": [
        {
          "internalType": "address",
          "name": "_voter",
          "type": "address"
        }
      ],
      "name": "voterStatus",
      "outputs": [
        {
          "internalType": "bool",
          "name": "",
          "type": "bool"
        }
      ],
      "stateMutability": "view",
      "type": "function"
    },
    {
      "inputs": [
        {
          "internalType": "address",
          "name": "",
          "type": "address"
        }
      ],
      "name": "voters",
      "outputs": [
        {
          "internalType": "bool",
          "name": "",
          "type": "bool"
        }
      ],
      "stateMutability": "view",
      "type": "function"
    },
    {
      "inputs": [],
      "name": "votingEnd",
      "outputs": [
        {
          "internalType": "uint256",
          "name": "",
          "type": "uint256"
        }
      ],
      "stateMutability": "view",
      "type": "function"
    },
    {
      "inputs": [],
      "name": "votingStart",
      "outputs": [
        {
          "internalType": "uint256",
          "name": "",
          "type": "uint256"
        }
      ],
      "stateMutability": "view",
      "type": "function"
    }
  ],
  "bytecode": "0x608060405234801561001057600080fd5b5033600160006101000a81548173ffffffffffffffffffffffffffffffffffffffff021916908373ffffffffffffffffffffffffffffffffffffffff160217905550611c67806100616000396000f3fe608060405234801561001057600080fd5b50600436106100f55760003560e01c8063576cc4f211610097578063a3ec138d11610066578063a3ec138d14610276578063d4608b72146102a6578063d4a6cac8146102b0578063d5346da1146102ce576100f5565b8063576cc4f2146101da57806385a386351461020a5780638da5cb5b146102285780639a53cbea14610246576100f5565b80633477ee2e116100d35780633477ee2e146101525780633c9a4df3146101845780633d7b995c146101a2578063462e91ec146101be576100f5565b8063031e5004146100fa5780630b56a68114610118578063101158af14610134575b600080fd5b6101026102ec565b60405161010f919061101d565b60405180910390f35b610132600480360381019061012d919061129a565b6103f1565b005b61013c6105e1565b6040516101499190611305565b60405180910390f35b61016c60048036038101906101679190611320565b6105e7565b60405161017b93929190611397565b60405180910390f35b61018c6106a9565b6040516101999190611305565b60405180910390f35b6101bc60048036038101906101b79190611320565b610720565b005b6101d860048036038101906101d391906113d5565b6108f7565b005b6101f460048036038101906101ef919061147c565b610a98565b60405161020191906114c4565b60405180910390f35b610212610b54565b60405161021f9190611305565b60405180910390f35b610230610b5a565b60405161023d91906114ee565b60405180910390f35b610260600480360381019061025b9190611320565b610b80565b60405161026d91906114ee565b60405180910390f35b610290600480360381019061028b919061147c565b610bbf565b60405161029d91906114c4565b60405180910390f35b6102ae610bdf565b005b6102b8610d39565b6040516102c591906114c4565b60405180910390f35b6102d6610d76565b6040516102e391906114c4565b60405180910390f35b60606000805480602002602001604051908101604052809291908181526020016000905b828210156103e857838290600052602060002090600302016040518060600160405290816000820154815260200160018201805461034d90611538565b80601f016020809104026020016040519081016040528092919081815260200182805461037990611538565b80156103c65780601f1061039b576101008083540402835291602001916103c6565b820191906000526020600020905b8154815290600101906020018083116103a957829003601f168201915b5050505050815260200160028201548152505081526020019060010190610310565b50505050905090565b600160009054906101000a900473ffffffffffffffffffffffffffffffffffffffff1673ffffffffffffffffffffffffffffffffffffffff163373ffffffffffffffffffffffffffffffffffffffff1614610481576040517f08c379a0000000000000000000000000000000000000000000000000000000008152600401610478906115db565b60405180910390fd5b60001515600660009054906101000a900460ff161515146104d7576040517f08c379a00000000000000000000000000000000000000000000000000000000081526004016104ce90611647565b60405180910390fd5b6000806104e49190610d89565b6104ec610bdf565b60005b60008054905081101561059c576000604051806060016040528083815260200185848151811061052257610521611667565b5b602002602001015181526020016000815250908060018154018082558091505060019003906000526020600020906003020160009091909190915060008201518160000155602082015181600101908161057c9190611842565b50604082015181600201555050808061059490611943565b9150506104ef565b506001600660006101000a81548160ff02191690831515021790555042600481905550603c816105cc919061198b565b426105d791906119cd565b6005819055505050565b60045481565b600081815481106105f757600080fd5b906000526020600020906003020160009150905080600001549080600101805461062090611538565b80601f016020809104026020016040519081016040528092919081815260200182805461064c90611538565b80156106995780601f1061066e57610100808354040283529160200191610699565b820191906000526020600020905b81548152906001019060200180831161067c57829003601f168201915b5050505050908060020154905083565b6000600660009054906101000a900460ff166106fa576040517f08c379a00000000000000000000000000000000000000000000000000000000081526004016106f190611a4d565b60405180910390fd5b600554421061070c576000905061071d565b4260055461071a9190611a6d565b90505b90565b600660009054906101000a900460ff1661076f576040517f08c379a000000000000000000000000000000000000000000000000000000000815260040161076690611a4d565b60405180910390fd5b610777610d39565b6107b6576040517f08c379a00000000000000000000000000000000000000000000000000000000081526004016107ad90611b13565b60405180910390fd5b6107bf33610a98565b6107fe576040517f08c379a00000000000000000000000000000000000000000000000000000000081526004016107f590611ba5565b60405180910390fd5b6000818154811061081257610811611667565b5b9060005260206000209060030201600201600081548092919061083490611943565b91905055506001600260003373ffffffffffffffffffffffffffffffffffffffff1673ffffffffffffffffffffffffffffffffffffffff16815260200190815260200160002060006101000a81548160ff0219169083151502179055506003339080600181540180825580915050600190039060005260206000200160009091909190916101000a81548173ffffffffffffffffffffffffffffffffffffffff021916908373ffffffffffffffffffffffffffffffffffffffff16021790555050565b600160009054906101000a900473ffffffffffffffffffffffffffffffffffffffff1673ffffffffffffffffffffffffffffffffffffffff163373ffffffffffffffffffffffffffffffffffffffff1614610987576040517f08c379a000000000000000000000000000000000000000000000000000000000815260040161097e906115db565b60405180910390fd5b600660009054906101000a900460ff166109d6576040517f08c379a00000000000000000000000000000000000000000000000000000000081526004016109cd90611a4d565b60405180910390fd5b6109de610d39565b610a1d576040517f08c379a0000000000000000000000000000000000000000000000000000000008152600401610a1490611c11565b60405180910390fd5b60006040518060600160405280600080549050815260200183815260200160008152509080600181540180825580915050600190039060005260206000209060030201600090919091909150600082015181600001556020820151816001019081610a889190611842565b5060408201518160020155505050565b6000600660009054906101000a900460ff16610ae9576040517f08c379a0000000000000000000000000000000000000000000000000000000008152600401610ae090611a4d565b60405180910390fd5b60011515600260008473ffffffffffffffffffffffffffffffffffffffff1673ffffffffffffffffffffffffffffffffffffffff16815260200190815260200160002060009054906101000a900460ff16151503610b4a5760019050610b4f565b600090505b919050565b60055481565b600160009054906101000a900473ffffffffffffffffffffffffffffffffffffffff1681565b60038181548110610b9057600080fd5b906000526020600020016000915054906101000a900473ffffffffffffffffffffffffffffffffffffffff1681565b60026020528060005260406000206000915054906101000a900460ff1681565b600160009054906101000a900473ffffffffffffffffffffffffffffffffffffffff1673ffffffffffffffffffffffffffffffffffffffff163373ffffffffffffffffffffffffffffffffffffffff1614610c6f576040517f08c379a0000000000000000000000000000000000000000000000000000000008152600401610c66906115db565b60405180910390fd5b60005b600380549050811015610d285760006002600060038481548110610c9957610c98611667565b5b9060005260206000200160009054906101000a900473ffffffffffffffffffffffffffffffffffffffff1673ffffffffffffffffffffffffffffffffffffffff1673ffffffffffffffffffffffffffffffffffffffff16815260200190815260200160002060006101000a81548160ff0219169083151502179055508080610d2090611943565b915050610c72565b5060036000610d379190610dad565b565b600080610d446106a9565b1115610d535760019050610d73565b6000600660006101000a81548160ff021916908315150217905550600090505b90565b600660009054906101000a900460ff1681565b5080546000825560030290600052602060002090810190610daa9190610dce565b50565b5080546000825590600052602060002090810190610dcb9190610e05565b50565b5b80821115610e0157600080820160009055600182016000610df09190610e22565b600282016000905550600301610dcf565b5090565b5b80821115610e1e576000816000905550600101610e06565b5090565b508054610e2e90611538565b6000825580601f10610e405750610e5f565b601f016020900490600052602060002090810190610e5e9190610e05565b5b50565b600081519050919050565b600082825260208201905092915050565b6000819050602082019050919050565b6000819050919050565b610ea181610e8e565b82525050565b600081519050919050565b600082825260208201905092915050565b60005b83811015610ee1578082015181840152602081019050610ec6565b60008484015250505050565b6000601f19601f8301169050919050565b6000610f0982610ea7565b610f138185610eb2565b9350610f23818560208601610ec3565b610f2c81610eed565b840191505092915050565b6000606083016000830151610f4f6000860182610e98565b5060208301518482036020860152610f678282610efe565b9150506040830151610f7c6040860182610e98565b508091505092915050565b6000610f938383610f37565b905092915050565b6000602082019050919050565b6000610fb382610e62565b610fbd8185610e6d565b935083602082028501610fcf85610e7e565b8060005b8581101561100b5784840389528151610fec8582610f87565b9450610ff783610f9b565b925060208a01995050600181019050610fd3565b50829750879550505050505092915050565b600060208201905081810360008301526110378184610fa8565b905092915050565b6000604051905090565b600080fd5b600080fd5b600080fd5b7f4e487b7100000000000000000000000000000000000000000000000000000000600052604160045260246000fd5b61109082610eed565b810181811067ffffffffffffffff821117156110af576110ae611058565b5b80604052505050565b60006110c261103f565b90506110ce8282611087565b919050565b600067ffffffffffffffff8211156110ee576110ed611058565b5b602082029050602081019050919050565b600080fd5b600080fd5b600067ffffffffffffffff82111561112457611123611058565b5b61112d82610eed565b9050602081019050919050565b82818337600083830152505050565b600061115c61115784611109565b6110b8565b90508281526020810184848401111561117857611177611104565b5b61118384828561113a565b509392505050565b600082601f8301126111a05761119f611053565b5b81356111b0848260208601611149565b91505092915050565b60006111cc6111c7846110d3565b6110b8565b905080838252602082019050602084028301858111156111ef576111ee6110ff565b5b835b8181101561123657803567ffffffffffffffff81111561121457611213611053565b5b808601611221898261118b565b855260208501945050506020810190506111f1565b5050509392505050565b600082601f83011261125557611254611053565b5b81356112658482602086016111b9565b91505092915050565b61127781610e8e565b811461128257600080fd5b50565b6000813590506112948161126e565b92915050565b600080604083850312156112b1576112b0611049565b5b600083013567ffffffffffffffff8111156112cf576112ce61104e565b5b6112db85828601611240565b92505060206112ec85828601611285565b9150509250929050565b6112ff81610e8e565b82525050565b600060208201905061131a60008301846112f6565b92915050565b60006020828403121561133657611335611049565b5b600061134484828501611285565b91505092915050565b600082825260208201905092915050565b600061136982610ea7565b611373818561134d565b9350611383818560208601610ec3565b61138c81610eed565b840191505092915050565b60006060820190506113ac60008301866112f6565b81810360208301526113be818561135e565b90506113cd60408301846112f6565b949350505050565b6000602082840312156113eb576113ea611049565b5b600082013567ffffffffffffffff8111156114095761140861104e565b5b6114158482850161118b565b91505092915050565b600073ffffffffffffffffffffffffffffffffffffffff82169050919050565b60006114498261141e565b9050919050565b6114598161143e565b811461146457600080fd5b50565b60008135905061147681611450565b92915050565b60006020828403121561149257611491611049565b5b60006114a084828501611467565b91505092915050565b60008115159050919050565b6114be816114a9565b82525050565b60006020820190506114d960008301846114b5565b92915050565b6114e88161143e565b82525050565b600060208201905061150360008301846114df565b92915050565b7f4e487b7100000000000000000000000000000000000000000000000000000000600052602260045260246000fd5b6000600282049050600182168061155057607f821691505b60208210810361156357611562611509565b5b50919050565b7f596f7520617265206e6f7420617574686f72697a656420746f2073746172742060008201527f616e20656c656374696f6e000000000000000000000000000000000000000000602082015250565b60006115c5602b8361134d565b91506115d082611569565b604082019050919050565b600060208201905081810360008301526115f4816115b8565b9050919050565b7f456c656374696f6e2069732063757272656e746c79206f6e676f696e67000000600082015250565b6000611631601d8361134d565b915061163c826115fb565b602082019050919050565b6000602082019050818103600083015261166081611624565b9050919050565b7f4e487b7100000000000000000000000000000000000000000000000000000000600052603260045260246000fd5b60008190508160005260206000209050919050565b60006020601f8301049050919050565b600082821b905092915050565b6000600883026116f87fffffffffffffffffffffffffffffffffffffffffffffffffffffffffffffffff826116bb565b61170286836116bb565b95508019841693508086168417925050509392505050565b6000819050919050565b600061173f61173a61173584610e8e565b61171a565b610e8e565b9050919050565b6000819050919050565b61175983611724565b61176d61176582611746565b8484546116c8565b825550505050565b600090565b611782611775565b61178d818484611750565b505050565b5b818110156117b1576117a660008261177a565b600181019050611793565b5050565b601f8211156117f6576117c781611696565b6117d0846116ab565b810160208510156117df578190505b6117f36117eb856116ab565b830182611792565b50505b505050565b600082821c905092915050565b6000611819600019846008026117fb565b1980831691505092915050565b60006118328383611808565b9150826002028217905092915050565b61184b82610ea7565b67ffffffffffffffff81111561186457611863611058565b5b61186e8254611538565b6118798282856117b5565b600060209050601f8311600181146118ac576000841561189a578287015190505b6118a48582611826565b86555061190c565b601f1984166118ba86611696565b60005b828110156118e2578489015182556001820191506020850194506020810190506118bd565b868310156118ff57848901516118fb601f891682611808565b8355505b6001600288020188555050505b505050505050565b7f4e487b7100000000000000000000000000000000000000000000000000000000600052601160045260246000fd5b600061194e82610e8e565b91507fffffffffffffffffffffffffffffffffffffffffffffffffffffffffffffffff82036119805761197f611914565b5b600182019050919050565b600061199682610e8e565b91506119a183610e8e565b92508282026119af81610e8e565b915082820484148315176119c6576119c5611914565b5b5092915050565b60006119d882610e8e565b91506119e383610e8e565b92508282019050808211156119fb576119fa611914565b5b92915050565b7f4e6f20656c656374696f6e207965740000000000000000000000000000000000600082015250565b6000611a37600f8361134d565b9150611a4282611a01565b602082019050919050565b60006020820190508181036000830152611a6681611a2a565b9050919050565b6000611a7882610e8e565b9150611a8383610e8e565b9250828203905081811115611a9b57611a9a611914565b5b92915050565b7f456c656374696f6e20706572696f642068617320616c726561647920656e646560008201527f6400000000000000000000000000000000000000000000000000000000000000602082015250565b6000611afd60218361134d565b9150611b0882611aa1565b604082019050919050565b60006020820190508181036000830152611b2c81611af0565b9050919050565b7f796f7520616c726561647920766f7465642e20596f752063616e206f6e6c792060008201527f766f7465206f6e63652e00000000000000000000000000000000000000000000602082015250565b6000611b8f602a8361134d565b9150611b9a82611b33565b604082019050919050565b60006020820190508181036000830152611bbe81611b82565b9050919050565b7f456c656374696f6e20706572696f642068617320656e64656400000000000000600082015250565b6000611bfb60198361134d565b9150611c0682611bc5565b602082019050919050565b60006020820190508181036000830152611c2a81611bee565b905091905056fea2646970667358221220e855b5f32b458e8ec3221f86441eee2fdc7fac4f01d7ee5ee521a3809d5e874a64736f6c63430008130033",
  "linkReferences": {},
  "deployedLinkReferences": {}
}